:020000040000FA
:10000000C86400024D0200005502000057020000C3
:1000100000000000000000000000000000000000E0
:10002000000000000000000000000000A901000026
:100030000000000000000000ED010000E10E0000E3
:100040006102000061020000610200006102000024
:100050006102000061020000610200006102000014
:100060006102000061020000610200006102000004
:1000700061020000610200006102000061020000F4
:1000800061020000610200006102000061020000E4
:1000900061020000610200006102000061020000D4
:1000A00061020000610200006102000061020000C4
:1000B00061020000610200006102000061020000B4
:1000C00061020000610200006102000061020000A4
:1000D0006102000061020000610200006102000094
:1000E0006102000061020000610200006102000084
:1000F00061020000610200006102000000F002F8ED
:1001000000F043F80AA090E8000C82448344AAF16E
:100110000107DA4501D100F038F8AFF2090EBAE86C
:100120000F0013F0010F18BFFB1A43F0010318472B
:10013000EC1800000C190000103A24BF78C878C1F0
:10014000FAD8520724BF30C830C144BF04680C60DD
:10015000704700000023002400250026103A28BF25
:1001600078C1FBD8520728BF30C148BF0B60704729
:10017000642900F0A381002070471FB59DE80300AB
:1001800000F0F4F91FBD10B510BD00F01DFB1146C5
:10019000FFF7F3FF00F018FF00F03BFB03B4FFF79D
:1001A000F2FF03BC00F0C6FE204B19680868B0E8F7
:1001B000F00F80F30988BFF36F8F4FF0000080F3DA
:1001C00011884EF00D0E70470000000006480068D0
:1001D000006880F3088862B661B6BFF34F8FBFF343
:1001E0006F8F00DF00BF00BF08ED00E0EFF3098074
:1001F000BFF36F8F0D4B1A6820E9F00F106008B540
:100200004FF0A00080F3118801F0F2F94FF00000E8
:1002100080F31188BDE8084019680868B0E8F00F5D
:1002200080F30988BFF36F8F704700BF1C00000286
:10023000EFF311804FF0A00181F31188704780F334
:1002400011887047EFF30580704700000848804729
:1002500008480047FEE7FEE7FEE7FEE7FEE7FEE7A9
:10026000FEE7000004480549054A064B70470000B8
:10027000110F0000FD000000C8610002C864000208
:10028000C8620002C862000270B5064600F052F96A
:10029000056806F10B0020F00704B4429CBF002063
:1002A00070BD2B466A68BAB11068A04210D304F141
:1002B000080188423CBF5068586007D35168101944
:1002C00041601168091B016058601460101D70BD09
:1002D00013465268002AE7D12146284600F032F939
:1002E0000028DED170BD02F0FF0343EA032242EA98
:1002F000024200F0DFB9704770477047FFFFFFFF11
:1003000070B50446051F00F015F90068002C14BFF5
:10031000446870BD002C18BFAC423CBF20466468E6
:10032000F8D301680A18AA4218BF456003D12A68A9
:1003300005461144016028684119A1421CBF6C6048
:1003400070BD6168696021680844286070BD53EA27
:10035000020C00F069802DE9F04B4FF00006002BF5
:100360001FBFB3FA83F503FA05F424FA05F65E40DD
:1003700012BF1643B2FA82F502FA05F4C5F1200560
:100380001EBF22FA05FC44EA0C04203556EA044C50
:100390004FEA144418BF641C4FF000084FF00009E6
:1003A000904271EB030C39D3002919BFB1FA81F7E0
:1003B00001FA07F6B0FA80F700FA07F6C7F120074E
:1003C0001EBF20FA07FC46EA0C062037B6FBF4FCF9
:1003D000A7EB0507103F07F01F0BCBF120060CFA27
:1003E0000BFB2CFA06F644BFB3460026202FA4BF11
:1003F0005E464FF0000B5BEA060C08BF4FF0010BA6
:1004000019EB0B09ABFB027C48EB0608C01B06FB93
:1004100002CC0BFB03CC71EB0C01C1E70B4602468F
:1004200041464846BDE8F08B13B54FF000004FF051
:100430000001AFF30080BDE81C4070470FB40449D1
:1004400010B503AA029800F021F910BC5DF814FB66
:10045000580000022DE9F0410E46044600202062BB
:100460002046E168884730B3252805D0D4E901212A
:100470009047206A401CF2E7E16820460027884741
:10048000050018D0A5F14100192802D820354FF4F5
:1004900000673246294620462760FFF769FE40B1D3
:1004A000012804D0F61D26F007060836D8E7361DC9
:1004B000D6E72846DAE7206ABDE8F0812DE9F04169
:1004C0000646002410687529314616A510D0AFF3F2
:1004D0000080002802DA404213A507E031688A074D
:1004E00001D512A502E0490704D511A5012401E0B8
:1004F000AFF3008000210A2206F1240709E0B0FBD7
:10050000F2FCB0FBF2F302FB1C00303078541846CA
:10051000491C0028F3D123462A463046BDE8F04165
:1005200000F05AB8000000002D0000002B00000071
:1005300020000000004870476C610002704770475F
:100540007047704738B504460A460020694600F0F7
:1005500036F9002808BF38BD02460099204600F051
:10056000CDF8012038BD012000F0FAB8F8B5AFF39E
:100570000080054600200C46102000BF0646A81942
:10058000A0420DD932466946002000F018F9070054
:1005900008BF00F0E5F80098A04218BF0546C4194E
:1005A000FFF7C8FF05600746F01D20F00700461959
:1005B000284600F00AF8B44208BFF8BDA21B314635
:1005C0003868BDE8F84000F099B800210160C0E942
:1005D00001107047102070472DE9F0470D469946ED
:1005E0009246044600F124080168880604D5E069B3
:1005F00021F01001216000E00120A84201DD471B2D
:1006000000E00027A1697A1902EB0900081AA0612D
:100610002078C00602D42046AFF30080002608E010
:10062000D4E901211AF806009047206A401C761C84
:1006300020624E45F4DB2078C0060AD52046AFF391
:10064000008006E0D4E9012130209047206A401C58
:100650002062381EA7F10107F4DC07E0D4E901218C
:1006600018F805009047206A401C2062281EA5F15A
:100670000105F3DC2046AFF300802078000602D5A8
:100680000220BDE8F0870120FBE70000074B70B5B2
:100690000D467B4400F051F80446284600F07AFCF1
:1006A00010B14FF0FF3070BD204670BD050900004D
:1006B0004FF000020429C0F0128010F0030C00F08B
:1006C0005880CCF1040CBCF1020F18BF00F8012BCC
:1006D000A8BF20F8022BA1EB0C0100F04AB85FEA9A
:1006E000C17C24BF00F8012B00F8012B48BF00F8A3
:1006F000012B704700487047646100020346406860
:100700008C46002818BF88423CBF03464068F8D397
:1007100018681844884207D00CF1030020F0070045
:10072000001D411A521A0146081D0A60FFF7E8BD74
:1007300001694A1C02610878704700B58FB0CDE9A5
:1007400001310021059105497944CDE90310114695
:100750006846FFF77FFE0FB000BD0000E5FFFFFF1A
:1007600010B500F061F8BDE8104000F058B84FF047
:10077000000200B5134694469646203922BFA0E8F1
:100780000C50A0E80C50B1F12001BFF4F7AF0907FD
:1007900028BFA0E80C5048BF0CC05DF804EB8900EE
:1007A00028BF40F8042B08BF704748BF20F8022B31
:1007B00011F0804F18BF00F8012B7047704710B53B
:1007C00000F0AAFB10BD70477546FFF793FFAE46D9
:1007D00005006946534620F00700854618B020B54D
:1007E000FFF740FDBDE820404FF000064FF0000746
:1007F0004FF000084FF0000B21F00701AC46ACE8C9
:10080000C009ACE8C009ACE8C009ACE8C0098D4635
:1008100070470446AFF300802046FFF7BFFC002876
:1008200001D000F087BB704710B5012805D000212A
:1008300003A000F021F8012010BD09A1F8E7000095
:1008400053494752544D454D3A204F7574206F66B9
:100850002068656170206D656D6F72790000000021
:100860003A2048656170206D656D6F727920636F05
:10087000727275707465640070B505460C460A2086
:1008800000E06D1C00F011F835B128780028F8D18F
:1008900002E0641C00F009F814B120780028F8D1B7
:1008A000BDE870400A20AFF3008008B569468DF8B6
:1008B00000000320ABBE08BD154810B58021416380
:1008C00081640D220021012000F0FDF90021122297
:1008D000084600F0F8F900F0BFF8002100F072F9C6
:1008E0000C4C204600F07AFA206820F07C0040F0A2
:1008F000040020604FF4E131204600F0A9FA20689E
:1009000040F001002060606820F04000606010BD91
:1009100000800F40000004402DE9F041FFF7CCFFBC
:100920004FF0E054204600F083F90C4B0021DD1E0F
:100930000122585C6E5C04EB800000F500500768F3
:1009400002FA06F637430760585C6E5C04EB401011
:100950008255491C0329ECDBBDE8F0818B190000AE
:1009600010B503280BD2064A054C4FF0E053E41EA5
:10097000125C205C03EB421281F00101115410BDA6
:100980008B19000010B500F0EDF90B4C0120C4F8F4
:10099000A4000320012161F39F10C4F8A001C80541
:1009A00000F0D2F9D4F8A40110F0010FFAD0012020
:1009B000C4F8CC0010BD00000040074070B50D2009
:1009C00000F03AF80C2000F037F80D24204600F033
:1009D0007FF9204600F08EF91D220A490A4800F0EE
:1009E00043F9084D0024083D35F81410C8B2C1F38E
:1009F0004122C90A01EB421100F048F9641C032CA2
:100A0000F2D370BDA819000000800F4010B5FFF7A9
:100A1000D5FFFFF7B7FF02490120C1F8CC0010BD98
:100A20000040074001B501226946024800F0FEF986
:100A300008BD00000000044006490122202803D31D
:100A400051F8C83F203801E051F8C43F82401343B9
:100A50000B607047004007400448D0F8840010F055
:100A6000FF0F01D000F01EB800F002B800400740B0
:100A700008490020D1F8801011F0FF0105D00129AC
:100A800005D0022900D10448704704487047044843
:100A90000068704700400740D8AC0700001BB70053
:100AA000801900000A490020D1F8841011F0FF01DC
:100AB00008D0012908D0022908D0032901D105480E
:100AC00000687047FFF7D4BF00F036B800F03CB8BC
:100AD000004007408419000000F03F02521C01FB57
:100AE00002F0704710F0030003D0012803D000206B
:100AF000704702487047024800687047001BB70003
:100B000080190000054810B5D0F8CC4024B1FFF79B
:100B1000A3FFB0FBF4F010BD002010BD0040074063
:100B200010B5FFF799FF0349D1F8C010B0FBF1F001
:100B300010BD0000004007400248D0F8A000FFF7B9
:100B4000D1BF00000040074010B5FFF7F5FF014698
:100B50000348D0F89801BDE81040FFF7BDBF000082
:100B60000040074070B50E4DD5F8D040B4B1FFF746
:100B700073FFB0FBF4F0D5F82821002192B2D343E3
:100B800013F0FF0F09D10902120A41EA10610002B5
:100B9000002302F58072FFF7DAFB70BD002070BD04
:100BA000004007400649042804D3001FC0B2C1F822
:100BB0008400704741F8800F0020486070470000B3
:100BC0000040074070B50E460446FFF745FF01465A
:100BD000B0FBF4F000B901200D4DC2B2C5F8D02031
:100BE00000227EB104FB101304FB00F2190E180260
:100BF0000023FFF7ACFB0006000C40F0FF00C5F837
:100C0000280101E0C5F82821BDE87040FFF7AABF20
:100C1000004007400549D1F8242100F0030022F4E8
:100C2000405242EA0030C1F82401704700400740BA
:100C300010B50E20FFF700FF0F20FFF7FDFE10207C
:100C4000FFF7FAFE0B20FFF7F7FE0B24204600F01B
:100C50003FF82046BDE8104000F04CB810B500EB5E
:100C6000C11444F8223010BD70B500230BE000BF62
:100C700051F82340E6B2C4F3072500EBC616240C56
:100C800046F825405B1C9342F2D370BD0207520E1A
:100C900000098300054810B503441868FF249440F8
:100CA000A04391400143196010BD00000080034043
:100CB00070B506460C46154605EB4410C1B23046E9
:100CC000FFF7E4FF70BD02EB4111C9B2FFF7DEBFD1
:100CD000074A0121202805D3936C203881400B431B
:100CE00093647047536C81400B435364704700001A
:100CF00000400740074A0121202805D3936C203883
:100D000081408B4393647047536C81408B435364A1
:100D1000704700000040074010B50446FFF7D8FFB9
:100D20002046BDE81040FFF7E5BF0000044AD2F8B6
:100D30000812044B194018400843C2F808027047D3
:100D40000040074078FFFF01044AD2F80812044B24
:100D5000194018408143C2F808127047004007400C
:100D600078FFFF0138B54FF40010FFF7EDFF0020CA
:100D70004FF400710090401C00908842FBDB104C47
:100D80000120C4F8A00085052846FFF7CFFF052104
:100D9000022060F39F11C4F898112846FFF7D4FF92
:100DA000D4F89C0110F0010FFAD00120C4F8C00063
:100DB0000220FFF72FFFBDE838400620FFF7F2BE04
:100DC00000400740036823F07C0242EA010303600D
:100DD0007047016841F001010160704710B5044699
:100DE00000F0E2F8FFF728FE0748844201D13120E5
:100DF00005E00648844201D1322000E03320BDE8FE
:100E00001040FFF789BF000000000440004004408C
:100E100010B50346002003E011F8014BDC61401CD3
:100E2000904202DA9C686407F6D410BDF0B515460E
:100E3000074600260C4607E02A4621463846FFF7BB
:100E4000E7FF2D1A06440444002DF5DC3046F0BDC2
:100E500070B50D460446FFF785FE2901B0FBF1F1A0
:100E6000491E216270BD416821F040014160704718
:100E700000F01F02012191404209920002F1E0229C
:100E8000C2F800117047000010B5002807DA4A07C1
:100E9000140E054A00F00F031B1FD45403E04A0749
:100EA000130E024A135410BD18ED00E000E400E0F8
:100EB00010B51520FFF7DCFF1620FFF7D9FF17202C
:100EC000FFF7D6FF00211520FFF7DEFF07211620D0
:100ED000FFF7DAFF02211720FFF7D6FF10BD000051
:100EE00010B5FFF7A5F900F04DFC18B14FF0805098
:100EF000024908600020FFF7A2F910BD04ED00E0F0
:100F000010B5FFF70DFE0149086010BD5C0000023E
:100F100010B5FFF77BFD10BD0346B2F5C04F01D9F8
:100F200000207047024808604FF4C040F9E7000015
:100F30006401000230BFFDE71AE0FFF78DFD0D49A7
:100F40000860FFF7EDFD0C490860FFF7F5FD0B4960
:100F50000860FFF7F9FD0A490860FFF7D3FD09496A
:100F60000860074802680548016807A0FFF766FAAD
:100F7000E3E7000000000002040000020800000295
:100F80000C000002100000022564200920256420C6
:100F90000D200A004FF0FF30704710B5C0B2FFF7C8
:100FA00041FD002010BD00000549884201D13120DB
:100FB00070470449884201D132207047332070477E
:100FC00000000440004004401FB500F0A3F900F009
:100FD00045F800F0C9F9FFF76BFF00200090019081
:100FE00002900346802211A10390134800F04AFBAF
:100FF00000200123CDE900300290034680220FA19A
:101000000390114800F03EFB00200123CDE90030A1
:101010000290034680220DA103900F4800F032FB9E
:1010200000F0B4FA012004B010BD000076546173E2
:101030006B4C65643100000011140000765461733C
:101040006B4C65643200000025140000636C6B6615
:101050007265715465737400390F000010B58023F8
:101060000D2200211F48FFF7F9FD802312220021E5
:101070001C48FFF7F3FD8023162200211948FFF7D3
:10108000EDFD8023172200211648FFF7E7FD80239E
:10109000062200211348FFF7E1FD802307220021EB
:1010A0001048FFF7DBFD0D2200211220FFF700FEA4
:1010B000122200211120FFF7FBFD16220021012042
:1010C000FFF7F6FD172200210846FFF7F1FD062283
:1010D00000212320FFF7ECFD072200212220FFF74B
:1010E000E7FD10BD00800F4010B504460E480068B3
:1010F00044600E480068844207D20B480168091D0D
:101100000B48006800F0AAF90CE007480168091DC7
:101110000848006800F0A2F907480068844201D23C
:101120000548046010BD00001C00000230000002F1
:1011300024000002200000024C0000022DE9F041D2
:1011400005460F461FB9A80000F0F2F800E0384647
:10115000064656B1602000F0EBF804460CB1266359
:1011600004E0304600F0C0F900E0002424B1A900FA
:10117000A522206BFFF7B7F82046BDE8F0810000FC
:1011800070B523E000F02CFA1348006808B901207C
:1011900000E00020054600F085FBBDB900F084F9B1
:1011A0000D48C068C468201D00F01CF90B48006899
:1011B000401E0A4908600A480068401E0849086045
:1011C00000F082F9204600F00DF800BF04480068E6
:1011D0000028D7D170BD00003C0100022C000002A5
:1011E0002800000210B50446206B00F07DF920466F
:1011F00000F07AF910BD000000BFFFF7C1FF0448FE
:101200000068012801D900F08BF900F0FFF8F4E73D
:10121000600000022DE9F04704460F461546994646
:10122000DDF82080002607E0B95D04F13400815527
:10123000B85D00B902E0761C142EF5D300BF002182
:1012400047200155082D00D30725E56225650020BC
:101250006065201D00F0FFF804F1180000F0FBF8B5
:101260002461C5F10800A06164620020A06584F8D3
:101270005C00BDE8F087000010B5002407E004EB37
:1012800084010F4A02EB810000F0D8F8641C082C9E
:10129000F5D30C4800F0D2F80B4800F0CFF80B481B
:1012A00000F0CCF80A4800F0C9F80A4800F0C6F887
:1012B00004480949086004480849086010BD000056
:1012C0006000000200010002140100022801000277
:1012D0003C01000250010002200000022400000234
:1012E0000A490968096809B9012100E0002121B112
:1012F0004FF0FF31064A116006E004490968C968E9
:10130000C868034A4168116070470000200000026D
:101310004C00000210B5FFF7F3FDFFF7FDFA0021C6
:101320000846FFF71DFB10BDFEF782FF00BFFEE77A
:1013300070B5044600F054F92046FEF7A5FF0546B7
:1013400000F0B0FA284670BD001F4FF080730360B4
:10135000001F0160001F034B036014380260203837
:10136000704700002913000010B51B48FFF736FD39
:101370001A48FFF733FD1A48FFF730FD04211748DC
:10138000FFF720FD4FF416511448FFF761FD134895
:10139000FFF71FFD1148FFF766FD04210E48FFF718
:1013A00011FD4FF416510C48FFF752FD0A48FFF7A4
:1013B00010FD0948FFF757FD04210948FFF702FD1A
:1013C0004FF416510648FFF743FD0548FFF701FDAE
:1013D0000348FFF748FD10BD0000044000400440F2
:1013E00000000C4001460A69D1E901309860D1E95A
:1013F000010358605068884201D18868506000201D
:1014000008611068401E10601068704730BF704758
:10141000002406E021460220FFF7A2FAA62000F0F1
:101420008BF8F7E7002408E021460120FFF798FA3F
:1014300084F00104472000F07FF8F5E700F108018F
:1014400041604FF0FF31816000F10801C16001612E
:1014500000210160704700210161704710B502460C
:101460000B685C1C0CB9106907E002F1080000E091
:101470004068446824689C42FAD944684C604C68CF
:10148000A160886041600A611468641C146010BD2A
:1014900042684A6093688B60936859609160086104
:1014A00003685B1C0360704710B5FEF7C1FE05487A
:1014B0000068401C03490860BFF34F8FBFF36F8F74
:1014C00010BD00005400000210B506480068401E20
:1014D000044908600846006810B90020FEF7AFFE16
:1014E00010BD00005400000210B5044634B100F0F5
:1014F00077F82046FEF704FF00F0D4F910BD000095
:10150000064800684FF47A71B0FBF1F0401E4FF0CE
:10151000E021486107200861704700005C0000027C
:101520004FF0805003490860BFF34F8FBFF36F8FB8
:101530007047000004ED00E070B504460026DCB101
:1015400000F04EF80E48006805190E480068001DAE
:10155000FFF748FF50B90B48006890F82C100120A5
:101560008840094909688143074801602846FFF718
:10157000BBFD00F097F906460EB9FFF7D1FF70BD2D
:10158000300000021C000002340000021FB50020E1
:10159000009001900290034680220BA103900C481A
:1015A00000F070F80446012C0CD1FEF741FEA01E9D
:1015B00008490860012008490860002007490860C0
:1015C00000F046F81FBD000049444C4500000000F3
:1015D000F91100004C000002380000023000000247
:1015E00002480068401C0149086070475000000232
:1015F0001248006818B10120114908601DE0002060
:101600000F4908600F480068B0FA80F0C0F11F0170
:1016100001EB81020C4B03EB82004268526842608E
:1016200000F108024368934202D142685268426066
:101630004268D268054B1A6000BF70475000000234
:101640004000000234000002600000021C000002A2
:1016500010B50A48006840F07870084908600846EC
:10166000006840F060400860FFF74AFF002004492E
:101670000860FEF7ABFD002010BD000020ED00E08B
:10168000540000022DE9FF4F81B08046154699466F
:10169000DDE90E7A28461099FFF750FD0446002C2C
:1016A00052D0681E216B01EB800B2BF0070B0095CD
:1016B0003A462046119B0299FFF7ACFD4A46414647
:1016C0005846FFF741FE2060BAF1000F01D0CAF87A
:1016D0000040FFF7E9FE25480068401C23490860E8
:1016E0002348006840B92248046008460068012881
:1016F0000CD1FFF7C1FD09E01E48006830B91C4855
:101700000068C06AB84201D8194804601A480068E5
:10171000401C1949086008460068A06494F82C1021
:101720000120884015490968084314490860E16AA6
:1017300001EB8101124A02EB8100211DFFF7A8FE97
:101740000126FFF7C1FE01E04FF0FF36012E09D15F
:101750000848006830B106480068C06AB84201D243
:10176000FFF7DEFE304605B0BDE8F08F2C0000022A
:101770001C00000238000002480000023400000291
:10178000600000022DE9F04100273B480068002876
:1017900065D13A480068401C384908600846066828
:1017A0008EB93748D0F80080364800683449086060
:1017B0003448C0F8008034480068401C3249086052
:1017C000FFF78EFD00BF3148006886423BD300BF63
:1017D0002B480068006808B9012000E0002020B113
:1017E0004FF0FF30294908602CE025480068C068A8
:1017F000C4686568AE4202D22448056022E0201D1C
:10180000FFF7F0FDA06A18B104F11800FFF7EAFD38
:1018100094F82C10012088401D49096808431C4990
:101820000860E16A01EB81011A4A02EB8100211D87
:10183000FFF72EFE1849E06A0968C96A8842C7D3D3
:101840000127C5E700BF14480068C06A00EB8000AC
:10185000104951F82000012806D9012704E00F485B
:101860000068401C0D4908600D48006800B1012760
:101870003846BDE8F0810000500000023000000250
:101880002000000224000002440000024C0000027C
:1018900034000002600000021C0000023C00000254
:1018A0004000000270B50025FFF7FEFD2C480068DF
:1018B000401E2B4908600846006800284BD1294883
:1018C0000068002847D024E02748C068C46804F1B5
:1018D0001800FFF787FD201DFFF784FD94F82C10FA
:1018E0000120884021490968084320490860E16ACD
:1018F00001EB81011E4A02EB8100211DFFF7C8FDAB
:101900001C49E06A0968C96A884202D301201A4961
:1019100008601548006808B9012000E00020002890
:10192000D2D01648006878B10AE0FFF72BFF10B15B
:1019300001201149086011480068401E0F490860E5
:101940000E4800680028F0D10B480068012802D139
:101950000125FFF7E5FDFFF7B7FD284670BD000044
:10196000500000022C000002280100023400000296
:10197000600000021C000002400000023C00000267
:10198000001BB700008000001903010000010101E5
:101990000101010406080705010204081000000007
:1019A000705A016800900000001980000003800058
:1019B0000101800000028000001E800000118000F4
:1019C00000198000010180000017800000168000CF
:1019D000000B8000001F80000103000000040000D5
:1019E00000050000000700000008000000090000DA
:1019F000000A00000104800001058000010680004B
:101A00000107800001088000000D800000128000A6
:101A1000000B8000001F8000010B88003C1A0000B2
:101A20000000000260000000380100009C1A000065
:101A30006000000268640000540100000000000023
:101A40000000000000000000000000000000000096
:101A50000000000000000000000000000000000086
:101A60000000000000000000000000000000000076
:101A70000000000000000000000000000000000066
:101A80000000000000000000000000000000000056
:0C1A9000AAAAAAAA0000000000000000A2
:04000005000000FDFA
:00000001FF
